:100000000C940D0B0C94350B0C94350B0C94350B98
:100010000C94350B0C94350B0C94350B0C94350B60
:100020000C94350B0C94350B0C9472180C94E1184D
:100030000C94350B0C94350B0C94350B0C94350B40
:100040000C94350B0C94350B0C94350B0C94350B30
:100050000C94350B0C94350B0C94350B0C94281820
:100060000C94350B0C94350B0C94350B0C94350B10
:100070000C94350B0C94350B0C94350B0C94350B00
:100080000C94131B0C94350B0C94350B0C94350B02
:100090000C94350B0C94350B0C94350B0C94350BE0
:1000A0000C94350B0C94350B0C94350B3C3800003C
:1000B00000000080F8FE0FE3FB1B0B0B8BFBF3F73C
:1000C000F6F6F60606ECECECECECECECECECECEC1E
:1000D000ECECECEEE6F6F6F6F7F3FBFBCBCBFBE352
:1000E0000FFEF8801E332121339E00000080F8FFB0
:1000F0000FE0F8F9F9F9F9F9F9F9F1F3F3F3F3F09D
:10010000F0FFFFFFFFFFFFFFFFFFFFFFFFFFFFFF0E
:10011000FFFFFFFFFFFFFFFFFFFF7F7FFEE00FFFFF
:10012000F880060600000000000F3FF0C607040438
:10013000070707070707070707070707FFFFFFFF6F
:10014000FFFFFFFFFFFFFFFFFFFFFFFF070707079F
:1001500007078787070726860707C6F03F1F008027
:100160008000000000000000030784C4E4E4E4E42D
:10017000E4E4E4E4C49C000FE7E7E7E7E7E7E7E748
:10018000E7E7C7870F1F0FC7E7E0ECE4E4E4E5E526
:10019000E4C4040404070300C040C30311000000CA
:1001A000000000000000FFFFFFFFFF393939FFFFAB
:1001B000FF0FE0E0EFEF0FFFFF183879FFFFF703C5
:1001C000E0E0EFEF0FFFF9F0F0FCFDFDFD0DECE0DE
:1001D000E0E00000012101000000000080C060207C
:1001E00060C080000000000C0C007EFE803C3E1CC5
:1001F0001C1C1C1C0C0C0E0C0C0C0C0E1E1C1C1CB9
:100200001C3C3E80FE7E00000000C0E0E0C000001C
:100210000000030300000E1B3166C680D060311B56
:100220000E00003828380001471E382020202030DA
:100230001010D0D0101090103020202020381E0731
:10024000010000060600000101000000000000009F
:10025000000036101F111111001F11111F001F1176
:10026000110E001F151511000A0000000E191117BC
:100270000600000810101F001F11111F0015151F88
:10028000001F09091700111F110000000000003EA7
:1002900012123E003E12122E0002023E0200140014
:1002A00000001C32222E0C00001020203E003E22B6
:1002B000223E002A2A3E003E12122E00223E22003A
:1002C0004010FF0100C0FEFEFEE0E0E0E0F8FEFEB0
:1002D00006C1FDFD8D8D8D8D0D02C5F6750A0D0AC9
:1002E0000DCAED6A6DEAD51A151A559A559A352A2E
:1002F00035AA352A352A352A352A35AA352A35AA86
:10030000372F5FA050DF5FC740C040C05EDF5FC0D7
:1003100050DF5FD959D959D940D05FDF58D858C07C
:100320005EDF43C343C341C040CA55C241C241C856
:1003300055C050C040C854CA41CA40C051CA41C04B
:1003400040C0FF01008054AA54A040A040A854AA75
:10035000048155A905890589050245A6550A0D0A96
:100360000D8A4D2A4DAA551A151AD5DA55DAB52A2D
:10037000B5AA352A352A352AB52A35AAB52A35AA85
:10038000B72F5FA050CA55C240C040C054CA55C024
:1003900050CA55C851C851C840C055CA50C850C0AD
:1003A00054CA41C241C241C040DE5FC343C341D8C9
:1003B0005FD150D040D85CCF4BDE40C053DE43C14C
:1003C00040C0FF01008054AA54A040A040A854AAF5
:1003D000048155A905890589050245A6550A0D0A16
:1003E0000D8A4D2A4DAA551A151A559A559A352A2D
:1003F00035AA352A352A352A352A35AA352A35AA85
:10040000372F5FA050CA55C240C040C054CA55C023
:1004100050CA55C851C851C840C055CA50C850C02C
:1004200054CA41C241C241C040CA55C241C241C87A
:1004300055C050C040C854CA41CA40C051CA41C04A
:1004400040C0FF01008054AA54A040A040A854AA74
:10045000048155A905890589050245A6550A0D0A95
:100460000D8A4D2A4DAA551A151A559A559A352AAC
:1004700035AA352A352A352A352A35AA352A35AA04
:10048000372F5FA050CA55C240C040C054CA55C0A3
:1004900050CA55C851C851C840C055CA50C850C0AC
:1004A00054CA41C241C241C040CA55C241C241C8FA
:1004B00055C050C040C854CA41CA40C051CA41C0CA
:1004C00040C0FF01000070F8DCCC8C8C0C0CC8E044
:1004D000703919191939F3E60586F536050605F65A
:1004E000F506EDEAED8A0DCAED0A15DAD5DAD5DAA8
:1004F000952A352A35AAB5AA356A556A556A556AC4
:10050000576F5FA048DC58D858D959CF47C047CF5C
:100510005CD858D85CCE47C340CF5FD858D84FC7B7
:1005200040D85FC341CF5CDF47C05EDF5BD85CCFA4
:1005300047C040CC5FDB59CD4FC058CF45C158CFE5
:1005400045C1FF0100002050884488040804884009
:10055000201109110911A3460506A5160506055621
:10056000A506AD4AAD0A0D4AAD0A155A955A955AD7
:10057000952A352A352AB52A356A556A556A556A43
:10058000576F5FA048D448D048D148C542C042C543
:1005900048D048D048C442C140C54AD048D04AC5D6
:1005A00040D04AC140C548D542C04AD54AD048C5C6
:1005B00042C040C44AD148C54AC048C540C148C5E8
:1005C00040C137AB352A35AA352A352A35AA35AA8E
:1005D00035AA559A559A151A151A159A552A4D2A5B
:1005E0004D0A4DAA552A130A132A53A2038255A96C
:1005F00055A9410141A9550140AA548A448A440A97
:1006000001FE50CA41C855C254CA41C855C244C06F
:1006100044C850C850C845C040C045CA50C850C85A
:1006200040C045CA54C850C854CA45C250CA55C033
:1006300040C245CA55CA40C055CA45C041C040C065
:1006400060BF37AB352A35AA352A352A35AA35AAEF
:1006500035AA559A559A151A151A159A552A4D2ADA
:100660004D0A4DAA552A130A132A53A2038255A9EB
:1006700055A9410141A9550140AA548A448A440A16
:1006800001FE50CA41C855C254CA41C855C244C0EF
:1006900044C850C850C845C040C045CA50C850C8DA
:1006A00040C045CA54C850C854CA45C250CA55C0B3
:1006B00040C245CA55CA40C055CA45C041C040C0E5
:1006C00060BF37ABB52AB5AA352AB52AB5AAB5AAEF
:1006D00035AAD5DAD5DA951A151A159A552A4D2A5A
:1006E0004D0A4DAA552A130A132A53A2038255A96B
:1006F00055A9410141A9550140AA548A448A440A96
:1007000001FE58DF43D85FC35EDE43D85FC646C0F4
:100710004EDD58D858CD47C040C045CA50C850C813
:1007200040C045CA54C850C854CA45C250CA55C032
:1007300040C245CA55CA40C055CA45C041C040C064
:1007400060BF37AB352A35AA352A352A35AA35AAEE
:1007500035AA559A559A151A151A15DAD56A6D6A79
:100760006D0ACDEA753A1B1A1B3AF3E203C2FDFD8E
:100770007DF9C101C1FDFD05C0FEFEDECECECE0E6F
:1007800001FE50CA41C855C254CA41C855C244C0EE
:1007900044C850C850C845C040C04FCF58D858D89A
:1007A00048C047CF5CD858D85CCE47C350DF5FC045
:1007B00040C34FDF5FDF40D05FDF47C141C140C072
:1007C00060BF576B556A556A556A352AB52A352A6E
:1007D000155A951A155A950AAD4AAD0A0D4AAD0A31
:1007E0000556A5162556A5460506854623120B1265
:1007F0000B12A3420341A9552850A0000050A81491
:1008000001FE40C040D042D540C44AD148C54AC08C
:100810004AD548D04AC540D04AC140C548D542C053
:1008200048D54AD048C44AC140C042C548D048D043
:1008300048C442C140D54AC140C142D54AD54AC048
:1008400060BF576B556A556A556A35AAB5AA352AED
:1008500015DAD51A15DAD50AEDEAED8A0DCAED0AD0
:1008600005F6F5363576E5C60506C5E6733A1B1A74
:100870001B3AF3E203C1FDFD3CF8E08000F8FC3CCC
:1008800001FE40C040D057DD41CC5FDB59CD4FC0A9
:100890004FDF58D85EC741D85FC341CF5CDF47C048
:1008A0005CDF5BD858CC4FC340C047CF5CD858D82A
:1008B0005CCE47C350DF5FC340C147DF5EDF4FC040
:1008C00060BF080800550080000100800001008022
:1008D000000100AA00AA00010080000100800001C0
:1008E00000800055070854FCFEFE56FC5458F8FCE6
:1008F000FC5CF85870F0F8F878F070E0E0F0F0F098
:10090000E0E0000102030201000102030201070806
:100910000000000000000000000000000080000057
:10092000000000208000000010002080000008145B
:1009300008208000140A140A20000A150A150A006B
:10094000000A1100110A000011000000110000004F
:100950000000000000000000000000000000000196
:10096000020304050607080408498888804588882A
:100970008045848880438488800001000100010252
:1009800003020102011310040E0E84848ACA91919D
:10099000FFD1110A0A04040E0E04E0E0F0E9FFFFA3
:1009A000FFFFFFFFFFF0F0E0F0E0E0F0F800048E62
:1009B0008E848ACA9191FF11110A0A040E0E040056
:1009C000C0E0E7FFFFFFFFFFFFFFF0F0F0F0E0E027
:1009D000F8FCFE0000848E8E84CAD151FF11110AEA
:1009E000040E0E040000E0F7FFFFFFFFFFFFFFFF14
:1009F000F8F0F0F0F0F8FEFFFF000080848E8EC467
:100A00000A11FF110A040E0E04800000DFFFFFFF31
:100A1000FFFFFFFEF0FFF0F8F0F0FCFFFFFFFF002C
:100A2000008080848E0E0411FF11040E0E848080DD
:100A30000000FEFFFFFFFFFFFEF0F8FFF8F0F8FEFA
:100A4000FFFFFFFFFF0000808000040E0E04FF0484
:100A50000E0EC48080000000FFFFFFFFFFFAF0F8D9
:100A6000F0FFF0F8FEFFFFFFFFFF9F000080000097
:100A70000000040EFF0E04C0C08080000000FFFFD5
:100A8000FFFFF8F0F0F0F8FFF8FFFFFFFFFFFFCFE8
:100A9000010000000000040E0E04FF84CECE84800E
:100AA00080800000FFFFFCF8F0F0F0F8F8FFFFFF97
:100AB000FFFFFFFFC7C08000000000040E0E0411FE
:100AC000FFD1C4CE8E8480000000FFFCF0E0F0F087
:100AD000F8F8FCFFFFFFFFFFFFE3E080800000006D
:100AE000040E0E040AD1FFD1CAC4CE8E0400000049
:100AF000F8F0E0F0F0F8F0FFFFFFFFFFFFFFE1E0AC
:100B0000C0C0800000040E0E04CAD1D1FFD1D1CAEA
:100B1000040E0E040000F0C0E0E0F0F0FFFFFFFF65
:100B2000FFFFFFF0F0E0E080C000040E0E04CACA30
:100B3000D1D1FFD1D10A0A040E0E0400C0E0E0F0CA
:100B4000F0FFFFFFFFFFFFFFF0F0E0E0C0E0F00F7D
:100B50001006FD06040808112F2120404080408027
:100B60000003000000000000000000000103010C71
:100B7000FA0C080808112F11202020C0A0C0000383
:100B80000000000000000000000000030018F4183E
:100B9000081010112F1110202060D06000030000F9
:100BA000000000000000000000030030E8301010DA
:100BB00010112F1110101030E83000030000000059
:100BC00000000000000000030060D0602020101131
:100BD0002F1110100818F418000300000000000086
:100BE00000000000000300C0A0C0202020112F1131
:100BF0000808080CFA0C00030000000000000000C8
:100C00000000000300804080404020212F11080890
:100C10000406FD06010301000000000000000000C2
:100C2000000300000102030405060504030201405D
:100C300040008000808080808000FC02020102026F
:100C4000FC0000FC0202010202FC0000FC020201A6
:100C50000202FC0000FC0202010202FC0000FC0295
:100C600002010202FC0000FC0202010202FC000080
:100C70000000011E316F5F5F5D5C5F5C585C585C1B
:100C80005F5C5C5F5C585C585C5F5C5C5F5C585CA4
:100C9000585C5F5C5C5F5C585C585C5F5C5C5F5C94
:100CA00058DC18DCDFDC5C5F5C585C585C5F5CBE69
:100CB000BE0000A018080404040818E040E01CE688
:100CC000FBFBFBEB0B0B0B0B0B0B0B0B0B6BEB1B74
:100CD000677F7E7CE06000000000000000000000F4
:100CE000708F70FFFFFF702020F8000000000000F0
:100CF000000000000302040404020300001C233C63
:100D00003F3F3F1C00000000000000000000FF000B
:100D100000000000FF00000000C0201010101010A4
:100D20001C131C3F1F1F1C101010101020C00000AF
:100D300000000000000000000000000000000000B3
:100D40000000000000000000000000000000FF00A4
:100D500000000000FF00000000FF00000000000095
:100D600000000000000000000000000000FF000084
:100D70000000000000000000FF81FFFFFF000000F6
:100D800000000000FF81FFFFFF0000000000FF8067
:100D900080808080FF00000080FFC040C0C0C0C0D5
:100DA000C0C0C0C0C0C0C0C0C0C0C0C0C0FF800004
:100DB0000000000000000003000303030303000021
:100DC000000000030003030303030000000303000B
:100DD00003030303030300030303000303030303E9
:100DE00003030303030303030303030303030303D3
:100DF00000000000000000000000000000000000F3
:100E000000000000000000000000000000000000E2
:100E100000000000000000000000000000000000D2
:100E200000000000000000000000000000000000C2
:100E3000003E1000FC02FDFDCDCDFDBA0202FD7D9D
:100E40006D6D05E2FA9D0565ED6502C2FDADAD056E
:100E5000E21DFDE119FD05C2FD0DF9E139FDFD05BC
:100E600002FD7D6D6D0502F2FD0D0D0D1DFAF408FC
:100E7000F007081717161616170B080B0B0B0B0BA2
:100E80000404050505050502020202020201020230
:100E900002020202020505040505040505040B0B08
:100EA0000B0B0B081717171616160B0B0403000174
:100EB00008FF051855ABFFFFFF55AAFFFFFF55AA16
:100EC000FFFFFF0808FFFFFFFFFFFFFFFFFFFFFF20
:100ED000FFFFFFFFFFFFFFC3FF99FFA5FFA5FF99DE
:100EE000FFC3FFFFFFFFFFE3FFDDFFBBFFBBFFDD36
:100EF000FFE3FFFFFFFFFF99FF81FFDBFFDBFF81C8
:100F0000FF99FFFFFFFFFFC3FF9DFF8DFF85FF815F
:100F1000FFC3FFFFFFFFFFC1FFB5FFA1FF85FFADCF
:100F2000FF83FFFFFFFFFFE7FFC3FF89FF81FFC3D1
:100F3000FFE7FFFFFFFFFFC3FFA5FFB5FFADFFA565
:100F4000FFC3FFFFFFFFFF83FF99FFB5FFA5FF9BD7
:100F5000FFC7FFFFFF3E0810387C0E0000000000B6
:100F6000000000000000C0FFDFDBDBDB010080C011
:100F7000F07C6E63FFF00040E6CFCBF77302000118
:100F800007FFF80C0703010000000000000000004C
:100F900000703E1C0810387C0E00C0FF1F0F7CE064
:100FA000FE3F00387EE6C3C3C3677E1C00C0FF1F40
:100FB0003BFBCF8E00C0FF0F3FFC701C87FF1F0064
:100FC00080C0F07C6E63FFF000C0FFDFC0C0007027
:100FD0003E1C0810387C0E000000000000000000DD
:100FE0000000C0FF3F1818D8FF8F00C0F07C6E6370
:100FF000FFF000C0FF1F3BFBCF8E00C0FFCFC3C37D
:10100000E77E3C00000000000000000000703E1C75
:101010000800000000000000000000E0FE3F1B1B75
:101020001F0E80C0F07C6E63FFFC0000007CFFC7D9
:10103000C0C07C3F070040E6CFCBF37302C0F8FF8F
:10104000DFDBDB1B030000000000000000000003EA
:1010500008FFFFFF00000000010101000101010085
:1010600001000100010001070878FEC7C3E37F1EED
:101070000006E2FF07000080C4E6F3D3CF06006459
:10108000E6DBDBFF7630786CE6FF7F2060E0CEDFCA
:10109000DBFB7370F8DCDEDF7B7380C3E3731F0F51
:1010A0000360F6DFDBFB7F0E40CCDFF3731F0E0324
:1010B000083F613F227F203D652721653F0F483E65
:1010C00027653D3F653D0179073F653F27653F4007
:1010D00010FF0100000080C0E0E0E0E0E0E0E0E0C0
:1010E000E1E1E1E1E1E1E1E1E1E1E1E1E1E1F1F1D0
:1010F000F1090505050505050505050505050505B0
:10110000050505050505050505050505050505058F
:10111000057F808080E0FFFFFFFFFFE39DE5858581
:1011200085858585858585858585858585858B8B63
:101130008F90A0A0A0A0A0A0A0A0A0A0A0A0A0A0D0
:10114000A0A0A0A0A0A0A0A0A0A0A0A0A0A0A0A09F
:10115000A0050505050505050505050505050505A4
:10116000050505050505050505050505050505052F
:1011700009F1D1D1A1A1A1A1A1A1A1A1A1A1A1A147
:10118000A1A1A1A1A1A1A1A0A060C0800000000117
:10119000FEA0A0A0A0A0A0A0A0A0A0A0A0A0A0A0F1
:1011A000A0A0A0A0A0A0A0A0A0A0A0A0A0A0A0A03F
:1011B000908F8F8F8787878787878787878787879E
:1011C0008787878787E7FFFFFFFFE09FE0808080BA
:1011D0007F203055AA55FA05FAFBFAFB3A3B3A3B19
:1011E0007AFBF6F5EA152A1D86FBFAFB3A3B3A3BF9
:1011F0003A3B3A55EA3FC1FEFFFF7F1F1C1C1C3CD7
:10120000FEF7F7E3010000E0FFFFFF1F1C1C1C1CA2
:101210001C040055AF50DF5FDF5FDC5CDC5CDC5E34
:10122000AF6FB75BA858B457B7D7B7D7B7D7B7D74B
:1012300077596E55AA55AAD5EA552A353A959ACDC9
:101240004A4526251213110909E4171C24C321114C
:101250000A040455AA7DDF1111FF020101000000FC
:101260000080808040402020309FA0E0900F102020
:1012700040808055AAD5ABD7ACDCB7D1B2D2BED9AD
:10128000A9D8AC54AA56AA55AB55AA55AA55AA56E0
:10129000A958A8053A35DAEDF6757A3B3A3B3A7B20
:1012A00076350A0D06FBFAFBBABBBABB3A050A054E
:1012B000FAFB3A00003F7FFFE1E0C0C0CCCEFEFE6B
:1012C000FE0680407F7F7F73737373738080407FDF
:1012D0007F8F80556B556B56AD55AD55AD55AD56A1
:1012E000AAD5AA556B35ABF56B352B756A55DB5511
:1012F0005B555A040404040A11E11A956653924995
:10130000492422126D93111010202070AC2320204C
:1013100020202080808080F00E817807C03C030070
:1013200080804020209CA36498B0C080031CE00013
:1013300000000058A858AB5EAA51A345897EC96930
:10134000A454B259A954AC56AA55AA55AA5CB06384
:101350009CE000FBF60D1A15CAF53AFBFA3B0605B0
:10136000E6FBFA7BFAFB063D6A35CAF57AFBFAFB27
:101370003A050A8F7F7EBC8F83607F7F0F0000F865
:10138000FFFF03001FFFFEF07C1F0781FEFFFF072A
:101390000000E0555B555AD55A756B352B76FDB577
:1013A0002D556AD6AA55AD55AA56AA55ADD56D5438
:1013B000685477202020202023AC702020101011AA
:1013C000936D1222244949935265961BE1110A0438
:1013D00004040400000000E01C038040B09864A3F3
:1013E0009C202040808000033CC00778810EF08064
:1013F00080808000E09CE350AC56AB55AB56AA54BD
:10140000AC59A952B464A949FE89C563B15AAE5B0F
:10141000A858A885FAFBFA3B3A3B3A3B3A3B060D03
:101420000AC5FAFBFAFB3A3B3A3B7A7BF6F5EAD57A
:101430002AD5AAFFFFFF1F1C1C1C1C1C0400000057
:10144000F0FFFFFF7F01000000000000C1FFFFFF71
:101450003FC0BF577757B757B7D7B7D7B1D0A05C02
:10146000DF5FDF5FDC5CDC5CDC5EAE6FB757AB542C
:10147000AB55AA04040A1121C3241C17E40909115D
:1014800012132625464DCA959A352A356AD5AA558E
:10149000AA55AA80804020100F90E0A09F30202005
:1014A000404080808000000000010102FF1111DF38
:1014B000BA55AA58A859AE56AB55AA55AA55AB5617
:1014C000AA56AC54A859B95EB2D2B1D7ACD4AFD5F4
:1014D000AA55AA080B00020202000009040000013C
:1014E000020200000524001001052401010104246A
:1014F00002060524060001070581031000400904C7
:101500000100020A00000007050202400000070572
:1015100083024000000403090412010002EF0201EB
:101520004041233680000101020301417264756964
:101530006E6F204C4C430041726475696E6F204C95
:10154000656F6E6172646F00D5F08D14A1C881CF94
:10155000D9F1AF2000F0F89C8E8783878E9CF8F03D
:101560000000FEFF0303030303070EFCF80000FE68
:10157000FF0303030303070EFCF80000FFFF000056
:101580000000000000FFFF0000FEFF8383838383D1
:10159000C7EE7C380000F8FC0E07030303070EFCBF
:1015A000F800003F7FE0C08080C0E07F3FFFFF0188
:1015B000010101010101FFFF0000FFFF0C0C0C0CF9
:1015C0001C3E77E3C100007FFFC0C0C0C0C0E07018
:1015D0003F1F00001F3F70E0C0C0C0E0703F1F0011
:1015E000007FFFC1C1C1C1C1E3773E1C00001F3FA6
:1015F00070E0C0C0C0E0703F1F000000000001FFAD
:10160000FF010000007F1333132A1370170F139785
:101610001382140D10E71300A71B11241FBECFEF78
:10162000DAE0DEBFCDBF11E0A0E0B1E0E4E9FFE326
:1016300002C005900D92A033B107D9F726E0A0E3D0
:10164000B1E001C01D92AF39B207E1F71BE0CDE078
:10165000DBE004C02197FE010E94C21FCC30D107FD
:10166000C9F70E94CC1B0C94C81F0C9400008091F9
:101670000A0208958F929F92AF92BF92CF92DF920B
:10168000EF92FF920F931F93CF936C01FA01149185
:10169000319694915A01F2E0AF0EB11CE12EF12C7B
:1016A000222301F141E050E0892F877011F450E0CE
:1016B00040E0E92FE695E695E695E40FF52FF11D5C
:1016C000EE9DA001EF9D500DFE9D500D11240330A5
:1016D00011F4440F551F249FF001259FF00D112494
:1016E000AE0EBF1ED601AE0DBF1D1A161B060CF0A6
:1016F000B5C080E8C816D1040CF0B0C09B01290F1A
:10170000311D121613060CF0A9C0603471050CF0DF
:10171000A5C0A114B10409F4A1C0C62FC770AB01C4
:1017200077FF02C0495F5F4F23E0559547952A95A3
:10173000E1F7242F77FF04C0CC2311F02FEF240F03
:10174000EE27FF27EC19FD09D7FC02C0F0E0E0E02E
:1017500030E83C19A038B1050CF4312F3E1B622F44
:10176000022E000C770B462F40952F3F0CF040E0E7
:1017700051E0892F877009F450E0969596959695DB
:10178000590F650F711D6930710514F058E0521B37
:10179000541B240F60E82603D0011124AC0DBD1D9D
:1017A000AE0FBF1F149FE00DF11D1124AE0EBF1E22
:1017B0008C2F0C2E000C990B0A3F09F45BC00B3FD9
:1017C00009F486C0033009F049C0832F90E0EA0D88
:1017D000FB1DA15CBD4F00E810E0081B190BB70111
:1017E000681B790B660F771F81E090E07C010C2E5F
:1017F00001C0EE0C0A94EAF7832E9C2ECF93DF9360
:10180000ED01EF96EF962296A590C590992059F09C
:10181000AE9C5001CE9C600127302CF4F880D0940F
:10182000FD20FB28F99222233AF0FC90C094FC2082
:10183000FA28FD920C941D0C11963A9529F75A95A9
:1018400051F0382D23951124E60FF11DA00FB11D85
:10185000C00FD11DD9CFDF91CF911124CF911F910E
:101860000F91FF90EF90DF90CF90BF90AF909F903F
:101870008F900895D52ED20ED21681F3AD01415C22
:101880005D4F70E060E0631708F054C0F501E60FAB
:10189000F71FE491F0E04F01082E02C0880C991C5C
:1018A0000A94E2F727FD04C0FA0110811829108379
:1018B000CC2349F027303CF48A0100581F4FF8012F
:1018C000C080C928C0826F5F7F4F4F5F5F4FDBCF03
:1018D000D52ED20ED21609F4C1CFAD01415C5D4FB9
:1018E00070E060E0631760F5F501E60FF71FE49123
:1018F000F0E04F01082E02C0880C991C0A94E2F710
:1019000027FD06C0FA011081082D009510231083D1
:10191000CC2359F027304CF48A0100581F4FC92CB2
:10192000C094F8019080C920C0826F5F7F4F4F5FE5
:101930005F4FD8CF2F5FAE0CBF1CA058BF4F9CCFBE
:101940002F5FAE0CBF1CA058BF4FC4CFEFE3F2E037
:10195000A0E0B8E000800EBC8111012C1197A0FD21
:10196000FDCF0192B9F70DB40895FC0180913E02BC
:10197000882311F13FB7F89482E08093E900209129
:10198000F200822F90E01816190614F481E090E01E
:10199000882339F0289844E640933D024091F100B5
:1019A0004083222339F02091F200211103C02BE65D
:1019B0002093E8003FBF08958FEF9FEF08952FB762
:1019C000F89483E08093E9009091E800892F807279
:1019D00095FF04C09091F20080E4891B2FBF089509
:1019E0008091350281110DC082E08093310284E044
:1019F00080933202109234021092330281E080937D
:101A0000350281E392E008953FB7F89480912D026A
:101A100090912E02A0912F02B091300226B5A89B82
:101A200005C02F3F19F00196A11DB11D3FBFBA2F70
:101A3000A92F982F8827BC01CD01620F711D811D30
:101A4000911D42E0660F771F881F991F4A95D1F7B5
:101A500008958F929F92AF92BF92CF92DF92EF92B2
:101A6000FF926B017C010E94040D4B015C01C114CB
:101A7000D104E104F104B9F00E94040D6819790958
:101A80008A099B09683E73408105910580F321E036
:101A9000C21AD108E108F10888EE880E83E0981E8A
:101AA000A11CB11CE4CFFF90EF90DF90CF90BF90CE
:101AB000AF909F908F90089540911B0250911C020F
:101AC0002091190230911A0242175307B4F49091F1
:101AD000E8009570E1F39091E80092FD19C08093C1
:101AE000F10080911B0290911C0201968F7399273F
:101AF000892B19F48EEF8093E80080911B0290915E
:101B00001C02019690931C0280931B0281E00895B1
:101B100080E00895DF92EF92FF920F931F93CF938F
:101B2000DF93D82E8A01EB017B01E40EF51ECE1562
:101B3000DF0559F0D7FE12C0FE0184910E945C0DB2
:101B400021968111F4CF0FEF1FEFC801DF91CF91E4
:101B50001F910F91FF90EF90DF9008958881EECF55
:101B60000F931F93CF93DF931F92CDB7DEB782E021
:101B7000898342E450E063ED74E180E80E948A0DBD
:101B80000E94F00CDC0112960D911C9101151105BB
:101B900089F0D801ED91FC910280F381E02DBE0126
:101BA0006F5F7F4FC801099597FD04C0F80100855C
:101BB0001185ECCF89810F90DF91CF911F910F910B
:101BC0000895615030F02091F100FC0120830196CE
:101BD000F8CF289884E680933D0208958F929F92D3
:101BE000AF92BF92CF92DF92EF92FF920F931F932B
:101BF000CF93DF936C017B018A0180910D018823D3
:101C000009F45CC080913E02882309F457C080919A
:101C10001F0280FF05C08091E00082608093E00099
:101C2000E801B12C8AEFA82E93E0892E2AE3922EA8
:101C3000209711F4BB20D9F10E94DF0C81110AC05A
:101C4000AA94AA20D9F161E070E080E090E00E94BF
:101C5000290DEECF8C171D0611F00CF08C2F9FB7BD
:101C6000F8948092E9002091E80025FD02C09FBF12
:101C7000DFCF282F30E0C21BD30BF701815020F0BB
:101C800041914093F100FACFE20EF31EBB2021F008
:101C90009092E800B12CEBCF8091E80085FDE7CF72
:101CA0009092E800BB24B394209709F3F3CF5D989A
:101CB00084E680931E02101611063CF081E090E04D
:101CC000F6019383828310E000E0C801DF91CF9199
:101CD0001F910F91FF90EF90DF90CF90BF90AF904A
:101CE0009F908F900895CF93DF931F92CDB7DEB76B
:101CF0006983DC01ED91FC910280F381E02D41E0EC
:101D000050E0BE016F5F7F4F09950F90DF91CF913B
:101D1000089583E08093E9008091F200882319F010
:101D20008AE38093E80008950E94DF0C90E0089514
:101D3000CF93DF931F92CDB7DEB7FC0184859585E5
:101D400097FD08C02FEF3FEF358724870F90DF9175
:101D5000CF910895CE0101960E94B50C019719F418
:101D6000898190E0F3CF8FEF9FEFF0CF0F931F9318
:101D7000CF93DF931F92CDB7DEB78C01FC01848532
:101D8000958597FF0BC0CE0101960E94B50C019777
:101D900071F4898190E0F80195878487F801848542
:101DA00095850F90DF91CF911F910F9108958FEF3F
:101DB0009FEFF1CFFC018485958597FD0BC09FB700
:101DC000F89482E08093E9008091F2009FBF90E058
:101DD000019608959FB7F89482E08093E90080917E
:101DE000F2009FBF90E0089520911202E09110024E
:101DF000F0911102CF01029690931102809310028C
:101E0000222319F0859194910895808191810895FC
:101E1000CF92DF92EF92FF92CF93DF930E94F40E66
:101E2000811520E8920791F4809171008D7F809355
:101E30007100109291004698479810920F02DF911E
:101E4000CF91FF90EF90DF90CF90089521E0209305
:101E50000F02813020E8920751F480910D02909199
:101E60000E0290931102809310020E94F40E97FDCF
:101E700005C020910C02222309F454C020910B02CA
:101E8000211150C021E020931302EC01DF7720974D
:101E900009F04BC081E08093140246983FE9C32EBD
:101EA0003FE0D32EE12CF12CCAEFD0E0E0919D066B
:101EB000F0919E060995811103C081E08093140280
:101EC00080911302882329F080911402882309F459
:101ED0003FC047980E94F40E0097F1F19C01DE018B
:101EE0000E949F1FDC01CB0129E0B595A79597952E
:101EF00087952A95D1F7109290002AE020939100BF
:101F0000D0929900C0929800809315029093160287
:101F1000A0931702B09318028091710082608093A1
:101F200071008DCF10921302B0CF9E0150E040E0BF
:101F300060E472E48FE090E00E944B1F69017A0137
:101F400081E0C81AD108E108F10810921402AECF5E
:101F50004699BFCF479ABECF8FEF9FEFDC01CBCF23
:101F60009C01E1E7F0E090819D7F90831092120246
:101F7000EFE8F6E0F0931102E0931002F0930E0206
:101F8000E0930D02318320837383628380E090E8C5
:101F9000958384830C94080F0F9303E00E943A0BFF
:101FA0000F9108950F930AEF0E943A0B0F91089535
:101FB0002D9A0895BC0190E080E00C94290D8FB11A
:101FC0008095807F669B88601C9B8460089510923A
:101FD0000A023E983F9808953E9A3F9A81E0809386
:101FE0000A02089590912502982329F490912602DF
:101FF000982381E009F480E0089580E00C94A60C19
:1020000080E0EFE3F2E081118FEF00248193819370
:10201000819381930394D1F708950F931F93CF93E6
:1020200010E000E0C0E02C2F41ED51E170E060E0F5
:10203000C8010E94D20FCF5F005E1F4FC43099F7D6
:1020400020E04FEC50E160E370E090E080E00E941F
:10205000D20F21E04FEC50E160E370E080E490E0CB
:102060000E94D20F23E045E55FE064E370E081E287
:1020700090E00E94D20F88E00E94F20F882329F09E
:102080000E94001086E080932702CF911F910F914C
:10209000089567307105E4F423E0880F991F2A95AD
:1020A000E1F7DB011196A80FB91FAA0FBB1FA958B2
:1020B000BE4FFC01E60FF71FEE0FFF1FE958FE4F62
:1020C00081E04D915C91208131814217530709F0E5
:1020D00080E008957F928F929F92AF92BF92CF92AD
:1020E000DF92EF92FF920F931F93CF93DF9391E3D1
:1020F000C92E91E0D92E27E7E22E21E0F22E10E042
:1021000000E077247394D0E0C0E0FE01EE0FFF1FE3
:10211000EE0DFF1D808191819E012F5F3F4F590180
:10212000892B39F1BE01C8010E944910882309F1A9
:10213000B501C8010E9449108823D9F046018C0ED0
:102140009D1EF401708271827282BE016E5F7F4FAC
:10215000C8010E944910882361F0F4017382BE0116
:102160006D5F7F4FC8010E944910882311F0F40170
:102170007482E501C830D10541F60F5F1F4FF8E0CA
:10218000CF0ED11C20E1E20EF11C0830110509F040
:10219000BACFDF91CF911F910F91FF90EF90DF9019
:1021A000CF90BF90AF909F908F907F900895873091
:1021B00091050CF5DC01119623E0AA0FBB1F2A95AF
:1021C000E1F7A60FB71FAA0FBB1FA958BE4FFC010E
:1021D00043E0EE0FFF1F4A95E1F7E60FF71FEE0F02
:1021E000FF1FE958FE4F81E04D915C9120813181C4
:1021F0004217530709F080E008953F924F925F9293
:102200006F927F928F929F92AF92BF92CF92DF9206
:10221000EF92FF920F931F93CF93DF9391E3A92E39
:1022200091E0B92E27E7E22E21E0F22ECC24C394D0
:10223000D12C10E000E033243394C7E0D0E0280133
:1022400082E0480E511C3801E3E06E0E711CFE0165
:10225000EE0FFF1FEE0DFF1D80819181892B19F17B
:10226000BE01C8010E94D7108823E9F0BE01C60153
:102270000E94D7108823B9F045018C0E9D1EF401F1
:1022800030823086308ABE01C2010E94D710882376
:1022900051F0F401308EBE01C3010E94D710882393
:1022A00011F0F40130A2219790F60F5F1F4F88E0E4
:1022B000A80EB11CEFEFCE1ADE0AF0E1EF0EF11C12
:1022C0000830110509F0B9CFDF91CF911F910F911F
:1022D000FF90EF90DF90CF90BF90AF909F908F9046
:1022E0007F906F905F904F903F900895CF92DF92D4
:1022F000EF92FF920F931F93CF93DF9342E050E052
:102300006CE271E08FE396E00E94EE0D87E7E82E25
:1023100081E0F82ED0E0C0E0670100E410E0F601B3
:10232000208143EC5EE0BE01C8010E94CC0FF0E1C9
:10233000CF0ED11C085F1F4F0038110581F782E0D6
:10234000E80EF11C2896C034D10531F7DF91CF910A
:102350001F910F91FF90EF90DF90CF900895E1E3F0
:10236000F1E0108211821282138214821582168289
:102370001782389681E0E137F80799F70895DF92E0
:10238000EF92FF920F931F93CF93DF93E09075012D
:102390008091060290910702A0910802B091090273
:1023A0002091010230910202D090760161E371E048
:1023B000C7E7D1E050E040E08B01040F151FF801A2
:1023C000F080FF20A1F08A01000F111F0C0F1D1FCC
:1023D000F801118210820596A11DB11D2C5F3F4F9F
:1023E0002931310514F028E130E0D394EF2C4F5F10
:1023F0005F4F4830510501F7685F7F4F6096F1E00D
:1024000061377F07B9F6E0927501809306029093D9
:102410000702A0930802B0930902309302022093AE
:102420000102D0927601EE2091F14091710150911C
:1024300072016091730170917401840F951FA61F42
:10244000B71F8093060290930702A0930802B093EF
:1024500009024C595F4F6F4F7F4F4093710150936A
:102460007201609373017093740164E670E088EB0D
:1024700091E00E94B00F64E670E080E090E00E947E
:10248000290D68EC70E087E194E00E94B00F109293
:102490007501DF91CF911F910F91FF90EF90DF9029
:1024A0000C94AF11CF92DF92EF92FF920F931F9394
:1024B000CF93DF937C0110927601DD24D394209199
:1024C00076010091F7011091F8016091F901709186
:1024D000FA01C090FB01223008F050C0A801E3E0EF
:1024E000440F551FEA95E1F7FA01E60FF71FEE0FCB
:1024F000FF1FE958FE4F80819181CD2433E0E31620
:10250000F10471F134E0E316F104A1F1EB0132E0E2
:10251000E316F10419F12197C40FD51FCC0FDD1F6D
:10252000C958DE4F488159815183408399838883FC
:10253000C092FB011092710110927201109273010E
:10254000109274012F5F209376010E946A100E94FE
:10255000FD100E94BF11D092FC01B1CF2196DCCFBB
:10256000E801219743E0CC0FDD1F4A95E1F7C60F44
:10257000D71FD4CF0F5F1F4FE801F4CFEB0183E0EB
:10258000CC0FDD1F8A95E1F7085F1F4F93E0000F26
:10259000111F9A95E1F720E043EC5EE0BE01C8010F
:1025A0000E94CC0F20E043EC5EE0BE01C80108961B
:1025B0000E94CC0F20E043EC5EE0BE01C80108970A
:1025C0000E94CC0FBE01685F7F4F20E043EC5EE0CD
:1025D000C8010E94CC0FBE016850710920E043EC95
:1025E0005EE0C8010E94CC0F10927601CC2071F001
:1025F00069E170E08AE491E0DF91CF911F910F9142
:10260000FF90EF90DF90CF900C94B00FDF91CF91BF
:102610001F910F91FF90EF90DF90CF90089520E0F1
:1026200041E35EE060E170E081E290E00E94D20F61
:1026300020E042E552E060E270E085E290E00E9436
:10264000D20F8CE00E94F20F882319F081E0809372
:10265000270208958CE00E94F20F882319F081E090
:102660008093270208950F931F93CF9310E000E00B
:10267000C0E02C2F41ED51E170E060E0C8010E9404
:10268000D20FCF5F005E1F4FC43099F7C091000199
:102690002EEF2C0F40EC52E060E370E090E080E021
:1026A0000E94D20F24E02C0F40EC52E060E370E077
:1026B00080E490E00E94D20F80E40E94F20F882311
:1026C00029F0C53018F4CF5FC093000180E20E946A
:1026D000F20F882339F080910001833018F0815087
:1026E000809300018CE00E94F20F882321F08091FA
:1026F000000180932702CF911F910F910895CF93EE
:10270000C0913001CF5FC093300120E04CEA50E02F
:1027100064E070E082E290E00E94D20FC53B28F0B6
:102720001092300181E080932702CF9108950F939A
:102730001F93CF930E94001010E000E0C0E02C2F08
:1027400041ED51E170E060E0C8010E94D20FCF5F1F
:10275000005E1F4FC43099F7C0910A0224E02C0F8D
:1027600040EC52E060E370E090E080E00E94D20F25
:102770002AE02C0F40EC52E060E370E080E490E04F
:102780000E94D20F80E40E94F20F81110E94EC0F90
:1027900080E20E94F20F81110E94E70F8CE00E94FC
:1027A000F20F882381F0C0910A0282E090E00E943B
:1027B000351FC81729F06C2F82E090E00E943D1F62
:1027C00081E080932702CF911F910F910895CF92BE
:1027D000DF92FF920F931F93CF93DF93CDB7DEB7B6
:1027E0002A970FB6F894DEBF0FBECDBFD12CC12CF7
:1027F00010E0212F41ED51E170E060E0C6010E9440
:10280000D20F1F5F80E2C80ED11C143091F720E078
:102810004FEC50E160E370E090E080E00E94D20F66
:1028200021E04FEC50E160E370E080E490E00E9432
:10283000D20F609106027091070280910802909178
:1028400009022AE08E010F5F1F4FA8010E94F41EAB
:10285000F80101900020E9F73197E01BF10BCE2E33
:1028600006E00E1BF12C002E000C110B8F2D90E0BA
:102870008017910704F143E0000F111F4A95E1F71B
:10288000075D1F4FF12C0C2C000CDD088F2D90E004
:102890008C159D05FCF423E0880F991F2A95E1F71C
:1028A00020E047E650E164E370E0800F911F0E9452
:1028B000D20FF394EBCF33E0880F991F3A95E1F7ED
:1028C00020E047E650E164E370E089960E94D20F71
:1028D000F394CCCF8CE00E94F20F882329F00E9461
:1028E000001081E0809327022A960FB6F894DEBF8D
:1028F0000FBECDBFDF91CF911F910F91FF90DF9061
:10290000CF9008958F929F92AF92BF92CF92DF9215
:10291000EF92FF920F931F93CF93DF93CDB7DEB764
:102920002A970FB6F894DEBF0FBECDBF00912102EB
:1029300010912202C8016DE270E00E94AE1F892B47
:1029400049F4809101029091020201979093020252
:1029500080930102809101029091020297FF09C0C9
:1029600088E08093270264EF71E080E090E00E94AD
:10297000290DC80168E570E00E94AE1F892B89F41B
:1029800081E0809305020E949C1E26E030E040E03A
:1029900050E00E944B1F89E0689F602D11246093D6
:1029A0000302809121029091220283709927892B42
:1029B000F1F48091000291E08927809300028091D8
:1029C00004028F5F8D3008F0F1C080930402809183
:1029D000FF018F5F8C3008F0EEC08093FF01809183
:1029E000FE018F5F883108F0E9C08093FE010E94EC
:1029F0007611D0900002E090F901F090FA0163E0C6
:102A0000EE0CFF1C6A95E1F70091F7011091F801B7
:102A1000085F1F4F73E0000F111F7A95E1F7809157
:102A2000FB012D2D42EC58E0B701813009F4CFC0F5
:102A3000C8010E94CC0F80910102909102026DE3C7
:102A400070E0681B790B20E042EB5EE08EE190E0E5
:102A50000E94D20F20E04FEA5EE06EE370E08EE16C
:102A600090E00E94D20F20E041E35EE070E060E081
:102A700081E090E00E94D20F20E04FE25CE06EE047
:102A800070E090E080E00E94D20FF090FF010F2DE7
:102A900010E0F801ED5DF34F24914FE45BE06CE250
:102AA00070E088E090E00E94D20F2F2D45E859E0B9
:102AB0006CE270E089E290E00E94D20FF801E758E2
:102AC000F64F249147E659E061E270E084E090E03F
:102AD0000E94D20FE091FE01F0E0E15BF64F2491FD
:102AE0008091FD014EE059E066E370E03CE0839F99
:102AF000C00111240E94D20FF801EE5FF64F24911D
:102B000044EE58E06DE070E081E090E00E94D20F6A
:102B1000609106027091070280910802909109026B
:102B20002AE0AE014F5F5F4F7A010E94F41EF70169
:102B300001900020E9F73197EE19FF09AE2E06E06B
:102B40000E1B10E0802E002E000C990859E0D52EA7
:102B5000181519040CF457C059E00502800111241E
:102B6000055F1F4FD12C0A2C000CBB0849E0C42E76
:102B70008D2D90E08A159B050CF054C08E0D9F1D85
:102B8000FC01208121330CF44BC020532A3008F083
:102B900047C04FEA50E161E170E0C801DC9C800D64
:102BA000911D11240E94D20FD394E2CF10920402FF
:102BB000109205020CCF1092FF0111CF1092FE016E
:102BC0008091FD0191E089278093FD0110CFC8011C
:102BD00008970E94CC0F2D2D42EC58E0B701C80198
:102BE00008960E94CC0FB701685071092D2D42EC58
:102BF00058E0C8010E94CC0FB701685F7F4F2D2DB0
:102C000042EC58E015CF1D9DC001112420E04FEA91
:102C100050E161E170E00B960E94D20F1F5F98CFE8
:102C200020E0B7CF80910502882389F0E09104026B
:102C3000F0E0E95AFF4E24918091030290E00BEFFF
:102C40004FE450E161E170E00B960E943A0B0E9464
:102C50006A100E94FD100E94BF1181E08093FC0168
:102C6000992493948091FC018823C9F11092FC016E
:102C700027E7A22E21E0B22E30E4E32EF12C8501CD
:102C800098E3C92ED12CF80186859785892BB1F45C
:102C900084859585009791F0978786871586148699
:102CA0000E947611F801268543EC5EE0B601C7016B
:102CB0000E94CC0F0E94FD0F9092FC01025011095E
:102CC000F8E0CF1AD108F9F638E0E30EF11C40E144
:102CD000A40EB11C50E8E516F10489F6C3CF87E7CE
:102CE000A82E81E0B82E00E410E0F50180819181EA
:102CF000892B21F5C0900101D12CF5E0CF0ED11C1C
:102D00000D2C000CEE08FF0831E0C31AD108E108D1
:102D1000F1080E949C1EA70196010E944B1F6F5F45
:102D20007F4F8F4F9F4FF5017183608320E043EC0D
:102D30005EE070E060E0C8010E94CC0FF0E1AF0EF1
:102D4000B11C085F1F4F0038110579F680E80E941A
:102D5000F20F882381F08091FB0181110CC08091DA
:102D6000F9019091FA01181619062CF40197909325
:102D7000FA018093F90180E10E94F20F882381F02B
:102D80008091FB0181110CC08091F9019091FA01B1
:102D9000873091052CF401969093FA018093F90104
:102DA00080E20E94F20F882381F08091FB01811163
:102DB0000CC08091F7019091F801181619062CF4B7
:102DC00001979093F8018093F70180E40E94F20F3D
:102DD000882381F08091FB0181110CC08091F70163
:102DE0009091F801873091052CF401969093F801A9
:102DF0008093F70180E80E94F20F882379F0809198
:102E0000FB01882359F08091F9019091FA0118167D
:102E1000190624F481E090E00E94521280E10E94A1
:102E2000F20F882371F08091FB01882351F080918B
:102E3000F9019091FA01079724F482E090E00E9452
:102E4000521280E20E94F20F882379F08091FB01F8
:102E5000882359F08091F7019091F801181619060E
:102E600024F483E090E00E94521280E40E94F20F6A
:102E7000882371F08091FB01882351F08091F70144
:102E80009091F801079724F484E090E00E94521298
:102E900084E00E94F20F882331F08091FB0191E0E1
:102EA00089278093FB0188E00E94F20F882329F094
:102EB0000E94001087E0809327022A960FB6F894AC
:102EC000DEBF0FBECDBFDF91CF911F910F91FF905D
:102ED000EF90DF90CF90BF90AF909F908F9008952C
:102EE000AF92BF92CF92DF92EF92FF920F931F9318
:102EF000CF93DF930E9400101092060210920702F7
:102F00001092080210920902C7E7D1E010E000E039
:102F1000C0900101D12C85E0C80ED11C0D2C000CF5
:102F2000EE08FF08E1E0CE1AD108E108F1080E949E
:102F30009C1E5801AA0CBB1CAC0EBD1EA70196011D
:102F40000E944B1F6F5F7F4F8F4F9F4FF501718323
:102F500060830F5F1F4F08301105D1F66096F1E0D6
:102F6000C73FDF0799F60E94AF111092FB0184E082
:102F700090E09093F8018093F7019093FA01809389
:102F8000F90188E190E0909302028093010210928F
:102F9000760181E08093FC011092750110E000E061
:102FA000C0E02C2F41ED51E170E060E0C8010E94CB
:102FB000D20FCF5F005E1F4FC43099F720E04FEC77
:102FC00050E160E370E090E080E00E94D20F21E0E9
:102FD0004FEC50E160E370E080E490E00E94D20F9B
:102FE000C09101012FEF2C0F45E55FE064E370E035
:102FF00081E290E00E94D20F80E40E94F20F8111E2
:1030000021C080E20E94F20F882339F080910101F3
:10301000823018F08150809301018CE00E94F20F01
:10302000882329F00E94001086E080932702DF9118
:10303000CF911F910F91FF90EF90DF90CF90BF90B5
:10304000AF900895C330E8F6CF5FC0930101D9CFA8
:103050001F920F920FB60F9211242F933F938F93CD
:103060009F93AF93BF938091290290912A02A091E0
:103070002B02B0912C023091280223E0230F2D3730
:1030800058F50196A11DB11D2093280280932902B5
:1030900090932A02A0932B02B0932C0280912D02D0
:1030A00090912E02A0912F02B09130020196A11DA5
:1030B000B11D80932D0290932E02A0932F02B09306
:1030C0003002BF91AF919F918F913F912F910F90BF
:1030D0000FBE0F901F90189526E8230F0296A11D92
:1030E000B11DD2CF1F920F920FB60F9211248F9362
:1030F0009F938091E1009091E100937F9093E10094
:1031000083FF0FC01092E90091E09093EB001092C2
:10311000EC0092E39093ED0010923E0298E09093C1
:10312000F00082FF22C093E09093E9009091F200BA
:10313000992319F09AE39093E80090911E02992345
:1031400041F090911E02915090931E02911101C086
:103150005D9A90913D02992341F090913D029150EA
:1031600090933D02911101C0289A84FF18C080916C
:10317000E2008E7E81608093E2008091E1008F7E8C
:103180008093E10080911F028E7E806180931F02F8
:103190009F918F910F900FBE0F901F90189580FFF9
:1031A000F7CF8091E2008E7E80618093E200809173
:1031B000E1008E7E8093E10080911F028E7E81600F
:1031C000E5CF1F920F920FB60F921124CF92DF928C
:1031D000EF92FF920F931F932F933F934F935F9321
:1031E0006F937F938F939F93AF93BF93EF93FF93CF
:1031F000CF93DF93CDB7DEB76C97DEBFCDBF109214
:10320000E9008091E80083FF25C068E0CE01459683
:103210000E94E10D82EF8093E8008D8987FF39C01D
:103220009091E80090FFFCCF982F907609F034C180
:103230009E894F89588D2F89F88C911131C0803823
:1032400061F5809120028093F1001092F1008EEFE1
:103250008093E8006C960FB6F894DEBF0FBECDBF2A
:10326000DF91CF91FF91EF91BF91AF919F918F919E
:103270007F916F915F914F913F912F911F910F918E
:10328000FF90EF90DF90CF900F900FBE0F901F90A8
:1032900018959EEF9093E800C7CF1092F100D5CF1C
:1032A000913059F48111D3CF4130510581F680918D
:1032B00020028D7F80932002CACF933049F4811180
:1032C000C6CF4130510519F6809120028260F2CFBD
:1032D000953041F48091E80080FFFCCF2068209376
:1032E000E300B5CF963009F0A9C00B8D1C8D22E00C
:1032F0001092E90010921C0210921B02F2122EC0D2
:1033000010921A02109219020E94B00D1F8299E0C9
:103310009983FA8291E09E8390EA98879AEF998741
:1033200020911B0230911C02275F3F4F3C832B836F
:103330008D831092E90010921C0210921B021093D0
:103340001A020093190249E050E0BE016F5F7F4FFF
:1033500080E00E948A0D0E94B00D79CF10931A026E
:10336000009319020E94F00CDC0112960D911C9141
:103370000115110509F451C1D801ED91FC910480AA
:10338000F581E02DBE016B5E7F4FC8010995009766
:1033900009F03EC1F80100851185EACFF3E0FF1284
:1033A0000EC08F89882309F440C0823061F440E860
:1033B00060E187E395E10E94741B811148CF81E2AF
:1033C0008093EB0047CF813029F440E86BE08BE23B
:1033D00095E1F1CF833099F70E94F00CDC01129651
:1033E000ED90FC908E010F5F1F4F6801E114F10416
:1033F00079F0D701ED91FC910680F781E02DB801BD
:10340000C7010995080F111DF701E084F184EECF83
:10341000D8011C92F60101900020E9F73197BF0115
:103420006C197D0940E0C601C6CF65E175E1FB017D
:10343000449150E080E80E948A0D09CF973009F44A
:10344000BECF983021F481E08093F10000CF993015
:1034500009F0FDCE837009F0B2CFE4E1F1E081E044
:1034600031E096E32191222371F08093E9003093BB
:10347000EB00DF0111972C912093EC009093ED006D
:103480008F5F873079F78EE78093EA001092EA0029
:103490008F8980933E02DBCE8B8D9C8D1092E9004C
:1034A00010921C0210921B0290931A028093190230
:1034B000898D811192C08E899D89913A49F481321A
:1034C00009F07DCF47E050E066E071E080E0B3CFE7
:1034D000913209F074CF833269F48F89988DB0E00E
:1034E000A0E08093020190930301A0930401B093A4
:1034F0000501ADCE803269F48091E80082FFFCCFF7
:1035000067E086E091E00E94E10D8BEF8093E80098
:103510009ECE823209F09BCE8F8980930D01EEEF13
:10352000FFE7859194918B3F9C4D51F1E0E0F8E0ED
:103530008091060190910701A0910801B0910901C5
:10354000803B9440A105B105F1F480910D0180FD0F
:103550001AC0EE3F8AE0F80789F587E797E791837D
:1035600080838091600080931D0288E19BE00FB60C
:10357000F894A895809360000FBE9093600067CE8A
:10358000EEEFFAE0D5CF808191818737974709F038
:103590005ECEA895809160008861809360008091E4
:1035A0001D0280936000EE3F2AE0F20789F08091CF
:1035B000FE0A9091FF0A9183808349CE8081918198
:1035C0008737980751F29093FF0A8093FE0AC5CF80
:1035D0001092FF0A1092FE0A3ACE0E94F00CDC0113
:1035E00012960D911C910115110509F4E8CED80130
:1035F000ED91FC910190F081E02DBE016B5E7F4F5B
:10360000C8010995811123CEF80100851185EBCF02
:10361000181619060CF41BCED2CEF1E0FF12BECE66
:1036200069E175E104CF1F920F920FB60F9211243A
:103630002F933F934F935F936F937F938F939F93BA
:10364000AF93BF93EF93FF93809115029091160271
:10365000A0911702B0911802892B8A2B8B2B09F4A9
:1036600040C08091140281110BC088B190E4892779
:1036700088B980911302882319F088B1805888B9DD
:103680008091150290911602A0911702B091180234
:10369000181619061A061B069CF4809115029091C3
:1036A0001602A0911702B09118020197A109B10961
:1036B0008093150290931602A0931702B0931802FC
:1036C000FF91EF91BF91AF919F918F917F916F91FA
:1036D0005F914F913F912F910F900FBE0F901F90D0
:1036E00018950E94080FECCFEF92FF920F931F9353
:1036F000CF93DF93F82E192FE62E042F81E0860F4B
:10370000880F0E945C0D83E00E945C0DCF2DD12FAD
:10371000EC0EFD2EF11CCE15DF05B9F007FF13C02E
:10372000FE0184910E945C0D182F80E00E945C0DC8
:10373000812321968111EFCFDF91CF911F910F91BE
:10374000FF90EF9008958881EDCF81E0F5CFEFE312
:10375000F6E01382128288EE93E0A0E0B0E084836A
:103760009583A683B7838EE191E0918380838FEF69
:103770009FEF9587848787E39BE090939E068093D5
:103780009D0680E090E890939C0680939B06469867
:103790003E9A47983F9A0895789484B5826084BD94
:1037A00084B5816084BD85B5826085BD85B5816045
:1037B00085BD80916E00816080936E0010928100C3
:1037C000809181008260809381008091810081607E
:1037D000809381008091800081608093800080913F
:1037E000910082608093910080919100816080932C
:1037F0009100809190008160809390008091C10041
:1038000084608093C1008091C10082608093C10078
:103810008091C10081608093C1008091C30081606C
:103820008093C3008091C00082608093C00080912B
:10383000C20081608093C20080917A00846080938E
:103840007A0080917A00826080937A0080917A0079
:10385000816080937A0080917A00806880937A00FA
:1038600010923E021092200210921F028091D70007
:1038700081608093D70080EA8093D80089B5806109
:1038800089BD89B5826089BD09B400FEFDCF61E0C4
:1038900070E080E090E00E94290D8091D8008F7C3C
:1038A00080618093D8008091E000807F8093E00069
:1038B0008091E1008E7E8093E1008DE08093E200B4
:1038C000559A209A81EC80937C0085B1806F85B9F0
:1038D00084B1877E84B984B1876E84B95E9A5F981B
:1038E0008AB1806D8AB9769A6E9881B3806F81BBF8
:1038F000899880B38D7080BB80E58CBD81E08DBDE3
:1039000085E090E00E94DA0F5F9A85E090E00E94E7
:10391000DA0F5E985C98E8E4F5E185E595E124919D
:103920002EBD00000DB407FEFDCF31968E179F0708
:10393000B1F75C9A81E880936400809165008160B2
:10394000809365000E94FD0F0E94DF0F87FF15C066
:103950005C9885EA8EBD00000DB407FEFDCF5C9A31
:103960002E982F982D988091640080628093640037
:1039700081E083BF889513BEFCCF0E94DF0F82FFDA
:1039800048C02D980E94DF0F84788438E1F40E94AB
:10399000D80F88EC90E00E94DA0F2F9882E090E038
:1039A0000E94351F8F3F29F06FEF82E090E00E9468
:1039B0003D1F84EF91E00E94DA0F2F9A0E94DF0FE3
:1039C00084788438D9F30E94DF0F84718431E1F464
:1039D0000E94D80F88EC90E00E94DA0F2E9882E0C7
:1039E00090E00E94351F882329F060E082E090E09B
:1039F0000E943D1F84EF91E00E94DA0F2E9A0E94F0
:103A0000DF0F84718431D9F388EC90E00E94DA0FE3
:103A1000B4CF0E94D80F82E090E00E94351F882327
:103A200009F474C00E94EC0F81E090E00E94351F01
:103A30008470B82E81E090E00E94351F81FF10C095
:103A4000B1102E98C1EFDFEF08E010E078E5A72E67
:103A50000E94DF0F86FF5DC02E9A2F9A0E94D80F1A
:103A600082E390E00E94DA0F0E94DF0F8111F8CF0D
:103A700080E180930E01809164008E7F80936400CA
:103A800080917A00806480937A0080917A0086FD2C
:103A9000FCCFC0917800D09179000E94040DAB0159
:103AA000BC01CE01B0E0A0E0DC01992788278C01A1
:103AB0009D01040F151F261F371FC901B801209152
:103AC00064002160209364006115710581059105F2
:103AD00011F00E94EB1E11E0C0E0D0E001E08FB7D2
:103AE000F8944091290250912A0260912B02709122
:103AF0002C028FBF80912302882309F49BC010926F
:103B00002302209761F30E940000E9CF0E94E70F93
:103B10008BCFBB2029F0C430D10511F42E9A2F98F9
:103B200081E00E94A60C9E01D7FF04C02227332704
:103B30002C1B3D0B27703327CE01D7FD079663E082
:103B4000959587956A95E1F7D7FF05C00197A8017C
:103B5000421B530B9A01BC017695762F6627779509
:103B60006795615C7D4FF12CE12C3801621A730A74
:103B70008E3F5FEF950709F43DC0AE9CD001AF9C2E
:103B8000B00D112450E040E0AB5ABA4E4B01E0E8D2
:103B90008E0E911C8F3F980791F0FD01E40FF51FE9
:103BA000E4916B01C40ED51EF0E02F01022E01C07E
:103BB000440C0A94EAF7F60154884528448A2115F2
:103BC000310599F0FD01E40FF51FE4916401C40E85
:103BD000D51EF0E02F01062C02C0559447940A949C
:103BE000E2F7F60154884528448A4F5F5F4F483515
:103BF000510581F6019660587F4FEA94EF28B1F4A1
:103C00000E94FD0F8FE090E00E94DA0F2196C931EB
:103C1000D10509F01DCFBB2011F02F9A2D9880E916
:103C200091E00E94DA0F0E94D80F1ACFEE24E3949D
:103C3000F12C9ECF80912402242F281B822F90915B
:103C40000E01291740F48F5F891708F05ACF13BF70
:103C5000889513BE56CF009323024093240280918F
:103C600021029091220201969093220280932102D8
:103C700080912602809325020E94DF0F8093260206
:103C80000E940010E0912702F0E0EE0FFF1FEB5FB3
:103C9000F94E85919491FC0109950E94FD0F31CF59
:103CA0008F929F92AF92BF92CF92DF92EF92FF924C
:103CB000CF93DF93EC01688179818A819B816115C3
:103CC00071058105910521F464E279ED8BE597E0BA
:103CD0002DE133EF41E050E00E944B1F49015A01B2
:103CE0009B01AC01A7EAB1E40E946A1F6B017C0151
:103CF000ACEEB4EFA50194010E94781FC60ED71E4A
:103D0000E81EF91EF7FE06C081E0C81AD108E108D6
:103D100080E8F80AC882D982EA82FB82C701B6012C
:103D20009F77DF91CF91FF90EF90DF90CF90BF9082
:103D3000AF909F908F9008958F929F92AF92BF9275
:103D4000CF92DF92EF92FF9260910F01709110017C
:103D50008091110190911201611571058105910504
:103D600021F464E279ED8BE597E02DE133EF41E05A
:103D700050E00E944B1F49015A019B01AC01A7EA88
:103D8000B1E40E946A1F6B017C01ACEEB4EFA501A7
:103D900094010E94781FC60ED71EE81EF91EF7FE7A
:103DA00006C081E0C81AD108E10880E8F80AC0928C
:103DB0000F01D0921001E0921101F0921201C7019F
:103DC000B6019F77FF90EF90DF90CF90BF90AF90BC
:103DD0009F908F90089560930F01709310018093CE
:103DE0001101909312010895BB272A3051F49923B1
:103DF00042F4BDE290958095709561957F4F8F4F0D
:103E00009F4F0C94041FBB27FA01A62F6217710560
:103E100081059105330B30FB66F0AA27660F771FEB
:103E2000881F991FAA1FA21710F0A21B6395385074
:103E3000A9F7A05DAA3308F0A95DA19336F7B111E7
:103E4000B1931082CA010C94251FDC01FC01672F7D
:103E500071917723E1F7329704C07C916D93708361
:103E60006291AE17BF07C8F30895F999FECF92BDCE
:103E700081BDF89A992780B50895262FF999FECF2C
:103E80001FBA92BD81BD20BD0FB6F894FA9AF99A77
:103E90000FBE01960895052E97FB1EF400940E9414
:103EA000621F57FD07D00E947D1F07FC03D04EF410
:103EB0000C94621F50954095309521953F4F4F4F80
:103EC0005F4F089590958095709561957F4F8F4FC6
:103ED0009F4F08950E949F1FA59F900DB49F900D26
:103EE000A49F800D911D11240895B7FF0C946A1FA3
:103EF0000E946A1F821B930B0895A1E21A2EAA1B2F
:103F0000BB1BFD010DC0AA1FBB1FEE1FFF1FA21789
:103F1000B307E407F50720F0A21BB30BE40BF50B86
:103F2000661F771F881F991F1A9469F7609570950F
:103F3000809590959B01AC01BD01CF010895A29F92
:103F4000B001B39FC001A39F700D811D1124911D6D
:103F5000B29F700D811D1124911D0895AA1BBB1BDA
:103F600051E107C0AA1FBB1FA617B70710F0A61B79
:103F7000B70B881F991F5A95A9F780959095BC019A
:103F8000CD010895EE0FFF1F0590F491E02D0994E7
:043F9000F894FFCFD3
:103F94000301FFFFFFFF00E100000000000010012B
:103FA40000000000C1808100000000000000730ECA
:103FB400EE0D940E890EDA0E980EB60E0D0A000060
:00000001FF
